:100000000C9454000C9473000C9473000C947300C3
:100010000C9473000C9473000C9473000C94730094
:100020000C9473000C9473000C9473000C94730084
:100030000C9473000C94EC000C9473000C947300FB
:100040000C9473000C9473000C9473000C94730064
:100050000C9473000C9473000C9473000C94730054
:100060000C9473000C9473000C9473000C94730044
:100070000C9473000C9473000C9473000C94730034
:100080000C9473000C9473000C947300DC01E40175
:100090000B022F02530276029802C402CA02CD025A
:1000A000D802ED02F7020C0311241FBECFEFD0E4FB
:1000B000DEBFCDBF11E0A0E0B1E0E4E6F6E000E095
:1000C0000BBF02C007900D92A231B107D9F721E012
:1000D000A2E1B1E001C01D92A931B207E1F70E948F
:1000E0007C010C9430030C940000CF93DF9300D07C
:1000F0001F92CDB7DEB789837B836A8389818A307B
:1001000031F48A819B81BC018DE00E94750080ECF6
:1001100090E0FC018081882F90E080729927892BE4
:10012000B1F386EC90E02981FC01208380E090E02F
:100130000F900F900F90DF91CF910895CF93DF93A1
:10014000CDB7DEB781E890E02BE0FC01208388E8A2
:1001500090E02DE730E0FC01318320838FE690E0D2
:1001600022E0FC01208384E890E0FC0111821082EF
:1001700080910E0190910F01A0911001B091110199
:100180008093130190931401A0931501B09316016D
:100190008FE590E02FE530E0F90120812068FC0137
:1001A00020830000DF91CF910895CF93DF93CDB7E7
:1001B000DEB781E890E0FC0110820000DF91CF9172
:1001C0000895CF93DF93CDB7DEB781E0809312011E
:1001D0000000DF91CF9108951F920F9200905F0071
:1001E0000F92112400905B000F922F933F934F9337
:1001F0005F936F937F938F939F93AF93BF93EF938F
:10020000FF93CF93DF93CDB7DEB780911301909129
:100210001401A0911501B09116010197A109B1092E
:100220008093130190931401A0931501B0931601CC
:100230008091130190911401A0911501B0911601C4
:10024000892B8A2B8B2B91F40E94E10080910E0167
:1002500090910F01A0911001B091110180931301B1
:1002600090931401A0931501B09316010000DF9143
:10027000CF91FF91EF91BF91AF919F918F917F911E
:100280006F915F914F913F912F910F9000925B0082
:100290000F9000925F000F901F901895CF93DF93FF
:1002A00000D000D0CDB7DEB769837A838B839C837F
:1002B00089819A81AB81BC8180930E0190930F015B
:1002C000A0931001B093110180910E0190910F0144
:1002D000A0911001B091110180931301909314012A
:1002E000A0931501B093160100000F900F900F908E
:1002F0000F90DF91CF910895CF93DF9300D0CDB7CA
:10030000DEB781E290E0FC01108282E290E02FEF04
:10031000FC01208384E290E02FEFFC01208385E242
:1003200090E0FC01108264E670E080E090E00E94C2
:100330004E010E949E001A82198289819A810E9430
:10034000AB019A8389830000809112018823E1F335
:1003500010921201F2CFCF93DF9300D000D0CDB72F
:10036000DEB79C838B8380E290E0FC018081882F44
:1003700090E08170992721E0892B09F020E0298302
:1003800080E290E0FC018081809582708A838B817D
:100390009C81092E000CAA0BBB0B40E050E026E02C
:1003A00030E0841B950B2817390708F4CFC08A5B0F
:1003B0009F4FFC010C94270381E090E09C838B838A
:1003C00087E080931701CBC08981882341F08A811F
:1003D000882329F482E090E09C838B831BC0898171
:1003E000882341F48A81882329F084E090E09C836B
:1003F0008B8310C08981882341F08A81882329F06A
:1004000086E090E09C838B8305C081E090E09C8334
:100410008B83A5C0A4C08981882341F08A81882369
:1004200029F483E090E09C838B8318C08981882322
:1004300041F08A81882329F086E090E09C838B83B9
:100440000DC08981882309F083C08A81882309F03F
:100450007FC081E090E09C838B837AC079C08981E2
:10046000882341F48A81882329F481E090E09C83E9
:100470008B8318C08981882341F08A81882329F4DD
:1004800083E090E09C838B830DC08981882309F4ED
:1004900061C08A81882309F45DC086E090E09C8376
:1004A0008B8358C057C08981882341F48A8188236F
:1004B00029F085E090E09C838B8317C08981882395
:1004C00041F08A81882329F086E090E09C838B8329
:1004D0000CC08981882309F03FC08A818823E1F517
:1004E00081E090E09C838B8337C036C0898188236C
:1004F00041F48A81882329F481E090E09C838B83F6
:1005000016C08981882341F08A81882329F086E0FA
:1005100090E09C838B830BC089818823F9F48A81C6
:100520008823E1F085E090E09C838B8317C016C0A0
:100530008981882319F48A81882319F086E090E064
:1005400002C081E090E09C838B8309C0000007C05B
:10055000000005C0000003C0000001C000008B8146
:100560009C81092E000CAA0BBB0B40E050E026E05A
:1005700030E0841B950B2817390708F450C0835BC3
:100580009F4FFC010C9427031092180187E0809381
:1005900017014EC0109218014BC08091170189308D
:1005A00008F03FC0809117018F5F8093170139C019
:1005B000809118018F5F80931801809118018A3013
:1005C00091F580911701893028F4809117018F5F90
:1005D000809317011092180126C08091170188237B
:1005E00021F1809117018150809317011EC08091E5
:1005F00018018F5F80931801809118018A30B9F437
:1006000080911701882329F08091170181508093F0
:100610001701109218010BC01092170109C00000B9
:1006200007C0000005C0000003C0000001C00000BA
:1006300085E290E020911701FC0120838B819C8151
:100640000F900F900F900F90DF91CF910895EE0FC4
:10065000FF1F0024001C0BBE0790F691E02D0994AB
:04066000F894FFCF3C
:10066400000000020000000075000000000001000E
:02067400000084
:00000001FF
