:100000000C9446000C9465000C9465000C946500FB
:100010000C9465000C9465000C9465000C946500CC
:100020000C9465000C9465000C9465000C946500BC
:100030000C9465000C94A3000C9465000C9465006E
:100040000C9465000C9465000C9465000C9465009C
:100050000C9465000C9465000C9465000C9465008C
:100060000C9465000C9465000C9465000C9465007C
:100070000C9465000C9465000C9465000C9465006C
:100080000C9465000C9465000C94650011241FBE4F
:10009000CFEFD0E4DEBFCDBF11E0A0E0B1E0EAECED
:1000A000F2E000E00BBF02C007900D92A231B10751
:1000B000D9F711E0A2E1B1E001C01D92A831B1076A
:1000C000E1F70E9449010C9463010C940000CF9366
:1000D000C82F8A3019F48DE00E9467009091C0000B
:1000E00095FFFCCFC093C60080E090E0CF910895CB
:1000F0008BE0809381008DE790E09093890080935E
:10010000880082E080936F00109285001092840036
:100110008091000190910101A0910201B091030131
:100120008093120190931301A0931401B0931501D1
:100130008FB780688FBF089510928100089581E085
:100140008093160108951F920F920FB60F921124FB
:100150000BB60F922F933F934F935F936F937F93C1
:100160008F939F93AF93BF93EF93FF93809112016F
:1001700090911301A0911401B09115010197A1096B
:10018000B1098093120190931301A0931401B093CD
:100190001501892B8A2B8B2B91F40E949F00809153
:1001A000000190910101A0910201B091030180939F
:1001B000120190931301A0931401B0931501FF91C4
:1001C000EF91BF91AF919F918F917F916F915F91CF
:1001D0004F913F912F910F900BBE0F900FBE0F903C
:1001E0001F901895609300017093010180930201A4
:1001F0009093030160931201709313018093140193
:1002000090931501089520B12095217082309105B9
:1002100091F034F4009709F18130910549F01FC045
:100220008430910591F064F08530910599F017C004
:1002300082E090E014C0222391F083E090E00FC0B0
:1002400021110DC084E090E00AC0222341F085E036
:1002500090E005C082E090E002C081E090E0813053
:10026000910521F08230910531F0089521E020932D
:10027000170125B9089520911701220F2093170126
:10028000283019F421E0209317012091170125B996
:10029000089511B88FEF82B984B915B86CE271E096
:1002A00080E090E00E94F2000E94780020E030E0C0
:1002B000C9010E9403019C01909116019923E1F369
:0A02C00010921601F5CFF894FFCF5D
:1002CA0001000000000000020000000067000000BA
:0202DA00000022
:00000001FF
