:100000000C9446000C9465000C9465000C946500FB
:100010000C9465000C9465000C9465000C946500CC
:100020000C9465000C9465000C9465000C946500BC
:100030000C9465000C94DE000C9465000C94650033
:100040000C9465000C9465000C9465000C9465009C
:100050000C9465000C9465000C9465000C9465008C
:100060000C9465000C9465000C9465000C9465007C
:100070000C9465000C9465000C9465000C9465006C
:100080000C9465000C9465000C94650011241FBE4F
:10009000CFEFD0E4DEBFCDBF11E0A0E0B1E0ECEAED
:1000A000F4E000E00BBF02C007900D92A231B1074F
:1000B000D9F721E0A2E1B1E001C01D92A931B20758
:1000C000E1F70E9425020C9454020C940000CF9397
:1000D000DF9300D01F92CDB7DEB789837B836A831D
:1000E00089818A3031F48A819B81BC018DE00E9434
:1000F000670080EC90E0FC018081882F90E08072A6
:100100009927892BB1F386EC90E02981FC012083AB
:1001100080E090E00F900F900F90DF91CF910895C5
:10012000CF93DF93CDB7DEB781E890E02BE0FC0101
:10013000208388E890E02DE730E0FC0131832083C4
:100140008FE690E022E0FC01208384E890E0FC014F
:100150001182108280910E0190910F01A0911001E7
:10016000B09111018093130190931401A093150194
:10017000B09316018FE590E02FE530E0F901208182
:100180002068FC0120830000DF91CF910895CF9378
:10019000DF93CDB7DEB781E890E0FC01108200006C
:1001A000DF91CF910895CF93DF93CDB7DEB781E094
:1001B000809312010000DF91CF9108951F920F925A
:1001C00000905F000F92112400905B000F922F931C
:1001D0003F934F935F936F937F938F939F93AF93CF
:1001E000BF93EF93FF93CF93DF93CDB7DEB78091AB
:1001F000130190911401A0911501B091160101977E
:10020000A109B1098093130190931401A0931501E2
:10021000B09316018091130190911401A0911501E2
:10022000B0911601892B8A2B8B2B91F40E94D3005D
:1002300080910E0190910F01A0911001B0911101D8
:100240008093130190931401A0931501B0931601AC
:100250000000DF91CF91FF91EF91BF91AF919F91FE
:100260008F917F916F915F914F913F912F910F905F
:1002700000925B000F9000925F000F901F90189506
:10028000CF93DF9300D000D0CDB7DEB769837A83F8
:100290008B839C8389819A81AB81BC8180930E0181
:1002A00090930F01A0931001B093110180910E0162
:1002B00090910F01A0911001B09111018093130151
:1002C00090931401A0931501B093160100000F90B4
:1002D0000F900F900F90DF91CF910895CF93DF9300
:1002E00000D01F92CDB7DEB79B838A8380E290E077
:1002F000FC018081882F90E08170992721E0892B73
:1003000009F020E029838A819B8182309105D9F010
:10031000833091052CF4009761F0019779F039C092
:100320008430910531F184309105C4F0059761F175
:1003300030C081E090E09B838A832BC082E090E014
:100340009B838A8326C08981882319F083E090E00B
:1003500002C082E090E09B838A831BC0898188234E
:1003600019F083E090E002C084E090E09B838A83F0
:1003700010C08981882319F085E090E002C084E0F4
:1003800090E09B838A8305C082E090E09B838A8310
:1003900000008A819B8182309105F9F083309105BC
:1003A00034F4009709F442C0019759F046C08430F4
:1003B000910509F43DC084309105E4F10597E1F120
:1003C0003CC081E0809317011092180185E290E013
:1003D00020911701FC01208330C0809118018823EF
:1003E00079F080911701869580931701809117010C
:1003F0008823A9F482E080931701109218010FC09E
:1004000080911701880F8093170180911701883020
:1004100031F482E08093170181E08093180185E236
:1004200090E020911701FC01208307C0000005C067
:10043000000003C0000001C000008A819B810F9072
:100440000F900F90DF91CF910895CF93DF9300D05D
:10045000CDB7DEB781E290E0FC01108282E290E04D
:100460002FEFFC01208384E290E02FEFFC0120833A
:1004700085E290E0FC0110826CE271E080E090E0A7
:100480000E9440010E9490001A82198289819A81FB
:100490000E946E019A838983000080911201882353
:0C04A000E1F310921201F2CFF894FFCFAC
:1004AC0000000002000000006700000000000100D6
:0204BC0000003E
:00000001FF
